:1000000000308A001B28000025308400831300087C
:10001000031918280130F800F701F70B0D28F80B29
:100020000C284A30F700F70B13281628800B0A28F3
:100030008A110A126628840183131F3083058316F0
:100040001F149F141F159F1107309C00FF3083124F
:10005000A400F930A2000130A300FE30831687000F
:100060008312A40001302302F800780DF700F70D89
:10007000F70DF830F7057708053892002208831647
:10008000920083122411240883168700831207111B
:100090000C309700A101A0012108F9002008F80008
:1000A000F90CF80CF90CF80CF90C78089500F90C1F
:1000B000790C3039F7001708CF39770497003230C0
:1000C000A0070318A10AC830A50004282108023C93
:1000D00003187328FF3A031D71282008FE3C0318FB
:0A00E0007328A101A0014C28630061
:02400E00713F00
:00000001FF
;PIC16F877A
;CRC=02B3  CREATED="27-may.-21 21:22"
