:1000000000308A0083280000FF00030E8301A10056
:100010000A08A0008A010408A2007708A300780853
:10002000A4007908A5007A08A600831383128B1E0A
:100030001B280B192C28220884002308F700240809
:10004000F8002508F9002608FA0020088A00210E89
:100050008300FF0E7F0E09008A110A122F288101EA
:100060000B118A110A121B282E08F8012D02031801
:100070003C282D08F7004828F7010830AF00AD0DE7
:10008000F70D2E0877020318F700F80DAF0B3F2885
:10009000080078082B08AD006430AE0034207708E3
:1000A000AB0078083030031D5C28AC1C6428AC1908
:1000B00064282C1A20305F28AC112C122C14F8075D
:1000C00078080C1E612899002B08AD000A30AE009C
:1000D00034207708AB0078083030031D7528AC1940
:1000E0007A282C1C7A282C1A2030F80778080C1E45
:1000F000772899003030AB072B080C1E7D2899001B
:100100008A110A12B228840183131F308305193023
:1001100083169900A63098009030831298008316B9
:100120001F149F141F159F1107309C008312A701F5
:10013000A80183160108C73938388100831281016C
:100140008B16C0308B040108A9002908AA000108F9
:10015000A9002A0829020319BC282908AB0013307A
:10016000AC0049280D300C1EB32899000A300C1E33
:0C017000B72899002908AA00A7286300FE
:02400E007A3FF7
:00000001FF
;PIC16F877A
;CRC=9CFD  CREATED="20-may.-21 14:12"
