:1000000000308A0019280000213084008313000882
:10001000031918280130F800F701F70B0D28F80B29
:100020000C284A30F700F70B13281628800B0A28F3
:100030000800840183131F30830583161F149F1447
:100040001F159F1107309C00003086008312A0010D
:100050002008083C031C40280130A1002008F800BB
:10006000031936280310A10DF80B322883168601D8
:100070008312210886003230A1000420A00A28281B
:10008000A0012008083C031C59288030A10020084A
:10009000F80003194F280310A10CF80B4B28831606
:1000A00086018312210886003230A1000420A00AB4
:0600B0004128272863002F
:02400E00713F00
:00000001FF
;PIC16F877A
;CRC=4FAE  CREATED="14-may.-21 20:54"
