:1000000002308A00D82A0000CC32633A7539611078
:10001000653720265321A031613761362018A012A0
:100020003426E4060A00D630EC377210E432203B66
:100030006F36F430EA32A0126610D6376C3AF30607
:100040000A00CC32633A7539611065372026532196
:10005000A03161376136A018A0123426E4060A00E8
:10006000D630EC377210E432203B6F36F430EA328F
:10007000A0126610D6376C3AF3060A002F308400BF
:1000800083130008031952280130F800F701F70B19
:100090004728F80B46284A30F700F70B4D28502820
:1000A000800B442808008E30F7002F08F8002E0837
:1000B000F900FA01F808031D67287908F800F9012A
:1000C0000830F702F808031D6728F7016F280310AE
:1000D000F81B6E28F90DF80DF7036728F8130800D0
:1000E0003B080319E028C3003F080319E028C307B1
:1000F000031881287F30C302031CE0280319E0287D
:1001000085288130C3070318E0284308F700F80169
:10011000F901FA013C08C700C7173D08C6003E08B0
:10012000C5001830C300C401451CAE284208FA07B8
:10013000031CA028F90A031DA028F80A0319C417F4
:100140004108F907031CA728F80A0319C417400837
:10015000BD00BD173D08F8070318C417C40DF80CFF
:10016000F90CFA0CC70CC60CC50C0310C30B932872
:100170000130F7070318E028F81BC528C70DFA0D52
:10018000F90DF80DF7030319E028C71FD628FA0A5E
:10019000031DD628F90A031DD628F80A031DD62800
:1001A000F80CF90CFA0CF70A0319E0283C08C40013
:1001B0004008C406C41FDE28F817E428F813E42812
:1001C000F701F801F901FA010800831603178C17EB
:1001D0000C14000000000318152983120C087F3945
:1001E0000313AF0003170D080313B00003170F0824
:1001F0000313B1002F080C1EFB28990030080317C9
:100200008D000313310803178F0083168C170C140D
:100210000000000083120313AE0B0F29122983166E
:100220000317152934298316031783120C0D0E0D9D
:100230007F390313AF0003170D080313B000031732
:100240000F080313B1002F080C1E24299900300851
:1002500003178D000313310803178F008D0A03194C
:100260008F0A0313AE0BE5280800B6010408B50099
:100270003610831B3614AF1F4529B517351EB50A36
:10028000AE09AF09AE0A0319AF0A2F0EF038B1005C
:10029000B107E23EB200323EB4002F080F39B20778
:1002A000B207B407E93EB300B307B3072E0E0F3908
:1002B000B307B407B30DB40DB409B40D2E080F394C
:1002C000B407B10D0730B0000A30B407B303031C04
:1002D0006529B307B203031C6929B207B103031CE4
:1002E0006D29B107B003031C7129303084008313DA
:1002F00007303505351384033505031D8629351A66
:10030000840A351A86292030F700A329840734305F
:100310000402031935170008F700031D9729351B40
:100320009729351AA729B51997292030A229B51F71
:100330009F292D30F70084033513B513A329B51574
:1003400035123030F70777080C1EA4299900840A6B
:10035000351F87290800F701F801F901FA01C301E7
:10036000C401C501C6014208410440043F04031909
:10037000E9292030C7000310BB0DBC0DBD0DBE0D1B
:10038000C30DC40DC50DC60D42084602031DD2297A
:1003900041084502031DD22940084402031DD22909
:1003A0003F084302031CE3293F08C3024008031C23
:1003B000400FC4024108031C410FC5024208031C40
:1003C000420FC6020314F70DF80DF90DFA0DC70B15
:1003D000BB2943308400831308000408B3003208AB
:1003E000B50003190C2A3108BE003008BD002F08E3
:1003F000BC002E08BB00C201C1012030C000823009
:10040000BF0070207A08B1007908B0007808AF000A
:100410007708AE00B50BF3293108BE003008BD00E7
:100420002F08BC002E08BB003B08B63CBB00FA01FD
:100430003C08BF00BC170310BC0CBD0CBE0CFA0C72
:10044000F90CF80CF70CBB0B1B2ABF1F322AF7095B
:10045000F809F909FA09F70A0319F80A0319F90A58
:100460000319FA0A7A08B1007908B0007808AF00D9
:100470007708AE00B11F492AB303B316AE09AF091E
:10048000B009B109AE0A0319AF0A0319B00A03197A
:10049000B10A3B30BA009A30B900CA30B800B7018F
:1004A0000A30B50032080319B30A3108BE0030081B
:1004B000BD002F08BC002E08BB003A08C200390856
:1004C000C1003808C0003708BF00AB210008AE00EB
:1004D000840A0008AF00840A0008B000840A0008FB
:1004E000B100FD308407F708031D892A320A35025E
:1004F0000319892A330803198B2A0F393502031986
:10050000832A0318BF2AB31BBF2A331B8B2A203030
:10051000BA2A2030B305B31E9A2AB3123208031D3B
:10052000B3037708B3002D300C1E942A99003308CA
:10053000F700B30132083502031DA92A7708B3007A
:100540002E300C1EA12A99003308F7002030B30585
:1005500000303030B31EBA2AB3123208031DB30381
:100560007708B3002D300C1EB32A99003308F7002A
:10057000B3013030F70777080C1EBC2A99003A08FF
:10058000BE003908BD003808BC003708BB00C201F6
:10059000C101C0010A30BF00AB217A08BA00790856
:1005A000B9007808B8007708B700B50B552A0800DD
:1005B000840183131F308305193083169900A630F8
:1005C000980090308312980083161F149F141F15F3
:1005D0009F1107309C008312A001A10183161F10F8
:1005E0009F101F119F111F1383121F179F17831630
:1005F0009F1783121F140030F8001F08C7397804B2
:100600009F000230AE00FA30AF003E20AE0B032B4D
:100610001F151F19092B83161E088312A2001E081E
:10062000A3002308AF002208AE0053202130BE00F3
:100630002330BD002030BC007730BB007A08C200F8
:100640007908C1007808C0007708BF0070207A08D8
:10065000A9007908A8007808A7007708A600043048
:1006600003178D0000308F00031017300313AE0006
:10067000E520023084002308AF002208AE003521B7
:100680000D300C1E412B99000A300C1E452B990091
:10069000133003178D0000308F0003101130031347
:1006A000AE00E520893084002908B1002808B00098
:1006B0002708AF002608AE000230B200ED211C3042
:1006C00003178D0000308F00031408300313AE00B1
:1006D000E5200230AE00FA30AF003E20AE0B6B2BAF
:1006E0000830F8001F08C73978049F000230AE00B8
:1006F000FA30AF003E20AE0B782B1F151F197E2B52
:1007000083161E088312A4001E08A5002508AF004A
:100710002408AE0053202130BE002330BD0020301D
:10072000BC007730BB007A08C2007908C1007808A5
:10073000C0007708BF0070207A08AD007908AC00CF
:100740007808AB007708AA00213003178D0000302D
:100750008F00031017300313AE00E5200230840031
:100760002508AF002408AE0035210D300C1EB62B35
:1007700099000A300C1EBA2B9900303003178D00F7
:1007800000308F00031011300313AE00E5208930D4
:1007900084002D08B1002C08B0002B08AF002A08F7
:1007A000AE000230B200ED21393003178D00003069
:1007B0008F00031408300313AE00E520FB2A63000A
:02400E00713F00
:00000001FF
;PIC16F877A
;CRC=913E  CREATED="17-may.-21 18:48"
