:1000000002308A00C32A0000CC32633A753961108D
:10001000653720265321A031613761362018A012A0
:100020003426E4060A00D630EC377210E432203B66
:100030006F36F430EA32A0126610D6376C3AF30607
:100040000A00293084008313000803193528013081
:10005000F800F701F70B2A28F80B29284A30F70097
:10006000F70B30283328800B27288A110A12F12A2F
:100070008E30F7002908F8002808F900FA01F8087E
:10008000031D4C287908F800F9010830F702F80838
:10009000031D4C28F70154280310F81B5328F90DB1
:1000A000F80DF7034C28F8138A110A12012B3508B2
:1000B0000319C728BD0039080319C728BD0703184D
:1000C00068287F30BD02031CC7280319C7286C2885
:1000D0008130BD070318C7283D08F700F801F90172
:1000E000FA013608C100C1173708C0003808BF0040
:1000F0001830BD00BE013F1C95283C08FA07031CC0
:100100008728F90A031D8728F80A0319BE173B0838
:10011000F907031C8E28F80A0319BE173A08B7001E
:10012000B7173708F8070318BE17BE0DF80CF90CFF
:10013000FA0CC10CC00CBF0C0310BD0B7A280130A7
:10014000F7070318C728F81BAC28C10DFA0DF90DE5
:10015000F80DF7030319C728C11FBD28FA0A031DAC
:10016000BD28F90A031DBD28F80A031DBD28F80C97
:10017000F90CFA0CF70A0319C7283608BE003A082A
:10018000BE06BE1FC528F817CB28F813CB28F701E9
:10019000F801F901FA010800831603178C170C14F3
:1001A000000000000318FC2883120C087F39031399
:1001B000A90003170D080313AA0003170F08031360
:1001C000AB0029080C1EE22899002A0803178D00AD
:1001D00003132B0803178F0083168C170C140000D1
:1001E000000083120313A80BF628F92883160317BF
:1001F000FC281B298316031783120C0D0E0D7F3963
:100200000313A90003170D080313AA0003170F080F
:100210000313AB0029080C1E0B2999002A080317A9
:100220008D0003132B0803178F008D0A03198F0A03
:100230000313A80BCC280800B0010408AF0030104D
:10024000831B3014A91F2C29AF172F1EAF0AA80932
:10025000A909A80A0319A90A290EF038AB00AB07AF
:10026000E23EAC00323EAE0029080F39AC07AC07C5
:10027000AE07E93EAD00AD07AD07280E0F39AD075B
:10028000AE07AD0DAE0DAE09AE0D28080F39AE07A5
:10029000AB0D0730AA000A30AE07AD03031C4C2992
:1002A000AD07AC03031C5029AC07AB03031C542956
:1002B000AB07AA03031C58292A3084008313073094
:1002C0002F052F1384032F05031D6D292F1A840A70
:1002D0002F1A6D292030F7008A2984072E30040256
:1002E00003192F170008F700031D7E292F1B7E29F5
:1002F0002F1A8E29AF197E2920308929AF1F862910
:100300002D30F70084032F13AF138A29AF152F1256
:100310003030F70777080C1E8B299900840A2F1FAD
:100320006E298A110A122B2BF701F801F901FA0143
:10033000BD01BE01BF01C0013C083B043A043904C1
:100340000319D2292030C1000310B50DB60DB70D29
:10035000B80DBD0DBE0DBF0DC00D3C084002031D04
:10036000BB293B083F02031DBB293A083E02031D7F
:10037000BB2939083D02031CCC293908BD023A08C3
:10038000031C3A0FBE023B08031C3B0FBF023C0894
:10039000031C3C0FC0020314F70DF80DF90DFA0D04
:1003A000C10BA4293D308400831308000408AD006C
:1003B0002C08AF000319F5292B08B8002A08B7004C
:1003C0002908B6002808B500BC01BB012030BA00DE
:1003D0008230B90057207A08AB007908AA00780863
:1003E000A9007708A800AF0BDC292B08B8002A0861
:1003F000B7002908B6002808B5003508B63CB50096
:10040000FA013608B900B6170310B60CB70CB80CD1
:10041000FA0CF90CF80CF70CB50B042AB91F1B2ABF
:10042000F709F809F909FA09F70A0319F80A03198B
:10043000F90A0319FA0A7A08AB007908AA007808C1
:10044000A9007708A800AB1F322AAD03AD16A80992
:10045000A909AA09AB09A80A0319A90A0319AA0A32
:100460000319AB0A3B30B4009A30B300CA30B20073
:10047000B1010A30AF002C080319AD0A2B08B800EF
:100480002A08B7002908B6002808B5003408BC00BF
:100490003308BB003208BA003108B90094210008C3
:1004A000A800840A0008A900840A0008AA00840A97
:1004B0000008AB00FD308407F708031D722A2C0AE0
:1004C0002F020319722A2D080319742A0F392F02DB
:1004D00003196C2A0318A82AAD1BA82A2D1B742AFD
:1004E0002030A32A2030AD05AD1E832AAD122C0882
:1004F000031DAD037708AD002D300C1E7D2A990039
:100500002D08F700AD012C082F02031D922A770851
:10051000AD002E300C1E8A2A99002D08F7002030DD
:10052000AD0500303030AD1EA32AAD122C08031DDE
:10053000AD037708AD002D300C1E9C2A99002D08C4
:10054000F700AD013030F70777080C1EA52A990097
:100550003408B8003308B7003208B6003108B500D7
:10056000BC01BB01BA010A30B90094217A08B40079
:100570007908B3007808B2007708B100AF0B3E2AC3
:100580008A110A124A2B840183131F308305193004
:1005900083169900A6309800903083129800831635
:1005A0001F149F141F159F1107309C008312A00178
:1005B000A10183161F109F101F119F111F1383127B
:1005C0001F179F1783169F1783121F140030F80000
:1005D0001F08C73978049F000230A800FA30A9002C
:1005E0002128A80BEE2A1F151F19F42A83161E08AE
:1005F0008312A2001E08A3002308A9002208A80055
:1006000038282130B8002330B7002030B6007730CA
:10061000B5007A08BC007908BB007808BA007708F2
:10062000B90057207A08A7007908A6007808A50025
:100630007708A400043003178D0000308F000310EA
:1006400017300313A800CC20023084002308A9002F
:100650002208A8001C290D300C1E2C2B99000A30F2
:100660000C1E302B9900133003178D0000308F00C3
:10067000031011300313A800CC2089308400270810
:10068000AB002608AA002508A9002408A80002300B
:10069000AC00D6291C3003178D0000308F000314E6
:0C06A00008300313A800CC20E62A6300F9
:02400E00713F00
:00000001FF
;PIC16F877A
;CRC=916F  CREATED="17-may.-21 18:51"
