:1000000000308A00B9280000FF00030E8301A10020
:100010000A08A0008A010408A2007708A300780853
:10002000A4007908A5007A08A600831383128C30F7
:100030008400001C1D280C182E2822088400230888
:10004000F7002408F8002508F9002608FA0020081F
:100050008A00210E8300FF0E7F0E09008A110A120A
:1000600031288F018E010C108A110A121D28F80107
:10007000F901F701FA013008031D41282F0803197F
:100080005B281030B1000310AD0DAE0DF70DFA0D69
:1000900030087A02031D4E282F087702031C5728C8
:1000A0002F08F702031CFA033008FA020314F80DB4
:1000B000F90DB10B43288A110A120529B50104086C
:1000C000B4003510831B35142E0EF038B000B00785
:1000D000E23EB100323EB3002E080F39B107B1073E
:1000E000B307E93EB200B207B2072D0E0F39B207CF
:1000F000B307B20DB30DB309B30D2D080F39B30714
:10010000B00D0730AF000A30B307B203031C8428D8
:10011000B207B103031C8828B107B003031C8C2865
:10012000B007AF03031C90282F30840083130730DF
:1001300034053413840733300402031934170008DC
:10014000F700031DAB28341BAB28341AB328B419AD
:10015000AB282030AE28B41534123030F7077708BA
:100160000C1EB0289900840A341F9B288A110A1299
:100170001A29840183131F308305193083169900CF
:10018000A630980090308312980083161F149F1495
:100190001F159F1107309C008312A701A80187300B
:1001A00090008F018E0183160C14C03083128B04D3
:1001B0000F08FA000E08F7000F087A02031DD8286E
:1001C0007708A9007A08AA002A08AC002908AB0021
:1001D0000F08FA000E08F7000F087A02031DE8283E
:1001E0007708A9007A08AA002B082902031DFC2819
:1001F0002C082A02031926292A08AE002908AD0076
:100200000130B000F430AF0037287708AD007A082D
:10021000AE00AD08031D0F29AE0803191329290FDD
:1002200026292A0F2629103084002A08AE00290822
:10023000AD005E280D300C1E1B2999000A300C1EE3
:100240001F2999002A08AC002908AB00E8286300A0
:02400E007A3FF7
:00000001FF
;PIC16F877A
;CRC=A80A  CREATED="20-may.-21 15:02"
