:1000000003308A007A2B0000FF00030E8301A10059
:100010000A08A0008A010408A2007708A300780853
:10002000A4007908A5007A08A600831383128C30F7
:100030008400801E1D288C1A2E2822088400230884
:10004000F7002408F8002508F9002608FA0020081F
:100050008A00210E8300FF0E7F0E09008A110A120A
:10006000402A8E30F7003308F8003208F900FA0110
:10007000F808031D45287908F800F9010830F7024F
:10008000F808031D4528F7014D280310F81B4C28DC
:10009000F90DF80DF7034528F81308003F08031978
:1000A000BE28C70043080319BE28C70703185F28E6
:1000B0007F30C702031CBE280319BE286328813085
:1000C000C7070318BE284708F700F801F901FA012D
:1000D0004008CB00CB174108CA004208C9001830BD
:1000E000C700C801491C8C284608FA07031C7E2853
:1000F000F90A031D7E28F80A0319C8174508F907ED
:10010000031C8528F80A0319C8174408C100C11741
:100110004108F8070318C817C80DF80CF90CFA0CB9
:10012000CB0CCA0CC90C0310C70B71280130F707A0
:100130000318BE28F81BA328CB0DFA0DF90DF80DF6
:10014000F7030319BE28CB1FB428FA0A031DB428ED
:10015000F90A031DB428F80A031DB428F80CF90C99
:10016000FA0CF70A0319BE284008C8004408C8065C
:10017000C81FBC28F817C228F813C228F701F801D5
:10018000F901FA010800831603178C170C140000FC
:1001900000000318F32883120C087F390313B300FF
:1001A00003170D080313B40003170F080313B5005A
:1001B00033080C1ED9289900340803178D00031347
:1001C000350803178F0083168C170C1400000000ED
:1001D00083120313B20BED28F02883160317F328BC
:1001E00012298316031783120C0D0E0D7F3903138A
:1001F000B30003170D080313B40003170F0803130C
:10020000B50033080C1E02299900340803178D002D
:100210000313350803178F008D0A03198F0A031380
:10022000B20BC3280800F701F801F901FA01C70170
:10023000C801C901CA01460845044404430403191E
:1002400051292030CB000310BF0DC00DC10DC20DD0
:10025000C70DC80DC90DCA0D46084A02031D3A292B
:1002600045084902031D3A2944084802031D3A295A
:1002700043084702031C4B294308C7024408031CD8
:10028000440FC8024508031C450FC9024608031C59
:10029000460FCA020314F70DF80DF90DFA0DCB0B3A
:1002A000232947308400831308000408B700360868
:1002B000B900031974293508C2003408C100330895
:1002C000C0003208BF00C601C5012030C400823022
:1002D000C3004E207A08B5007908B4007808B3004E
:1002E0007708B200B90B5B293508C2003408C10099
:1002F0003308C0003208BF003F08B63CBF00FA0117
:100300004008C300C0170310C00CC10CC20CFA0C8B
:10031000F90CF80CF70CBF0B8329C31F9A29F709B6
:10032000F809F909FA09F70A0319F80A0319F90A89
:100330000319FA0A7A08B5007908B4007808B300FE
:100340007708B200B51FB129B703B716B209B309D0
:10035000B409B509B20A0319B30A0319B40A031997
:10036000B50A3B30BE009A30BD00CA30BC00BB01AC
:100370000A30B90036080319B70A3508C200340834
:10038000C1003308C0003208BF003E08C6003D0867
:10039000C5003C08C4003B08C30013210008B2009C
:1003A000840A0008B300840A0008B400840A000824
:1003B000B500FD308407F708031DF129360A39021C
:1003C0000319F12937080319F3290F3939020319E1
:1003D000EB290318272AB71B272A371BF3292030BC
:1003E000222A2030B705B71E022AB7123608031D8D
:1003F000B7037708B7002D300C1EFC299900370889
:10040000F700B70136083902031D112A7708B70033
:100410002E300C1E092A99003708F7002030B70546
:1004200000303030B71E222AB7123608031DB7033A
:100430007708B7002D300C1E1B2A99003708F700EB
:10044000B7013030F70777080C1E242A99003E08C0
:10045000C2003D08C1003C08C0003B08BF00C60107
:10046000C501C4010A30C30013217A08BE0079080F
:10047000BD007808BC007708BB00B90BBD29080097
:100480008C1E402A1A08A9002908313A03194C2A5F
:10049000033A0319AF2A122B83161F109F101F1146
:1004A0009F111F1383121F179F1783169F17831205
:1004B0001F140030F8001F08C73978049F00A630C9
:1004C000F700F70B612A00001F151F19652A831614
:1004D0001E088312AE001E08AF002F08B3002E08BE
:1004E000B20031202130C2002330C1002030C000D2
:1004F0007730BF007A08C6007908C5007808C400C4
:100500007708C3004E207A08AD007908AC0078085F
:10051000AB007708AA00343003178D0003308F003A
:10052000031016300313B200C320893084002D0855
:10053000B5002C08B4002B08B3002A08B200023022
:10054000B600552120300C1EA32A99000D300C1E38
:10055000A72A99000A300C1EAB2A9900122B831689
:100560001F109F101F119F111F1383121F179F171A
:1005700083169F1783121F140830F8001F08C7390D
:1005800078049F00A630F700F70BC42A00001F155F
:100590001F19C82A83161E088312AE001E08AF005A
:1005A0002F08B3002E08B20031202130C2002330C2
:1005B000C1002030C0007730BF007A08C60079083B
:1005C000C5007808C4007708C3004E207A08AD0043
:1005D0007908AC007808AB007708AA00423003170E
:1005E0008D0003308F00031019300313B200C320B5
:1005F000893084002D08B5002C08B4002B08B30006
:100600002A08B2000230B600552120300C1E062BFD
:1006100099000D300C1E0A2B99000A300C1E0E2B6F
:100620009900122B8C128A110A121D2849346E343B
:10063000743472346F34643475347A3463346134AE
:10064000203475346E34613420346F347034633444
:100650006934F3346E342034313420346F34203430
:1006600032340D340A34003445362032613A6F108A
:10067000E4326C10F332EE396F39A0183A1025339A
:10068000A0060A0045362032613A6F10E4326C1041
:10069000F332EE396F392019A032731DA0126610A3
:1006A0000D050000831603178C170C1400000000C2
:1006B00083128C080319762B0D080313B00003175F
:1006C0000F080313B10003170C0803130C1E662B4D
:1006D0009900300803178D000313310803178F00AA
:1006E0008D0A03198F0A0313522B031703138A1160
:1006F0000A12972B840183131F3083051930831648
:100700009900A630980090308312980083161F1429
:100710009F141F159F1107309C008312A701A80189
:10072000163003178D0003308F000313522B8316EE
:0C0730008C16C03083128B049C2B6300DD
:02400E00713F00
:00000001FF
;PIC16F877A
;CRC=7A8C  CREATED="18-may.-21 14:47"
