:1000000000308A0038280000FF00030E8301A100A1
:100010000A08A0008A010408A2007708A300780853
:10002000A4007908A5007A08A600831383120B1E8A
:100030001B288B182C28220884002308F70024088A
:10004000F8002508F9002608FA0020088A00210E89
:100050008300FF0E7F0E09008A110A122F288316D3
:1000600086138030831286068B108A110A121B2891
:10007000840183131F30830583161F149F141F15DB
:100080009F1107309C00013086008613831286136F
:100090008316811383120B1683160113C03083124B
:0600A0008B0451286300EF
:02400E00713F00
:00000001FF
;PIC16F877A
;CRC=A1CE  CREATED="18-may.-21 14:09"
