:1000000000308A005C280000FF00030E8301A1007D
:100010000A08A0008A010408A2007708A300780853
:10002000A4007908A5007A08A600831383128C30F7
:100030008400801E1D288C1A2E2822088400230884
:10004000F7002408F8002508F9002608FA0020081F
:100050008A00210E8300FF0E7F0E09008A110A120A
:1000600031288C1E31281A08A9002908303A0319B2
:100070003D28013A03193F28412808104128081457
:1000800041288C128A110A121D282A3084008313F9
:100090000008031959280130F800F701F70B4E2822
:1000A000F80B4D284A30F700F70B54285728800BDF
:1000B0004B288A110A128128840183131F3083057B
:1000C000193083169900A63098009030831298005A
:1000D00083161F149F141F159F1107309C00831255
:1000E000A701A801F03083168800831288013F30F1
:1000F000831685008C16C03083128B043230AA0020
:10010000452883160514831205188B2831300C1EE0
:10011000872899008F2830300C1E8C2899007E2863
:0201200063007A
:02400E00713F00
:00000001FF
;PIC16F877A
;CRC=A109  CREATED="10-jun.-21 23:16"
